{
  "_format": "hh-sol-artifact-1",
  "contractName": "ExternalWeightedMath",
  "sourceName": "contracts/ExternalWeightedMath.sol",
  "abi": [
    {
      "inputs": [
        {
          "internalType": "uint256[]",
          "name": "balances",
          "type": "uint256[]"
        },
        {
          "internalType": "uint256",
          "name": "bptAmountOut",
          "type": "uint256"
        },
        {
          "internalType": "uint256",
          "name": "totalBPT",
          "type": "uint256"
        }
      ],
      "name": "calcAllTokensInGivenExactBptOut",
      "outputs": [
        {
          "internalType": "uint256[]",
          "name": "",
          "type": "uint256[]"
        }
      ],
      "stateMutability": "pure",
      "type": "function"
    },
    {
      "inputs": [
        {
          "internalType": "uint256",
          "name": "balance",
          "type": "uint256"
        },
        {
          "internalType": "uint256",
          "name": "normalizedWeight",
          "type": "uint256"
        },
        {
          "internalType": "uint256",
          "name": "amountOut",
          "type": "uint256"
        },
        {
          "internalType": "uint256",
          "name": "bptTotalSupply",
          "type": "uint256"
        },
        {
          "internalType": "uint256",
          "name": "swapFeePercentage",
          "type": "uint256"
        }
      ],
      "name": "calcBptInGivenExactTokenOut",
      "outputs": [
        {
          "internalType": "uint256",
          "name": "",
          "type": "uint256"
        }
      ],
      "stateMutability": "pure",
      "type": "function"
    },
    {
      "inputs": [
        {
          "internalType": "uint256[]",
          "name": "balances",
          "type": "uint256[]"
        },
        {
          "internalType": "uint256[]",
          "name": "normalizedWeights",
          "type": "uint256[]"
        },
        {
          "internalType": "uint256[]",
          "name": "amountsOut",
          "type": "uint256[]"
        },
        {
          "internalType": "uint256",
          "name": "bptTotalSupply",
          "type": "uint256"
        },
        {
          "internalType": "uint256",
          "name": "swapFeePercentage",
          "type": "uint256"
        }
      ],
      "name": "calcBptInGivenExactTokensOut",
      "outputs": [
        {
          "internalType": "uint256",
          "name": "",
          "type": "uint256"
        }
      ],
      "stateMutability": "pure",
      "type": "function"
    },
    {
      "inputs": [
        {
          "internalType": "uint256",
          "name": "totalSupply",
          "type": "uint256"
        },
        {
          "internalType": "uint256",
          "name": "normalizedWeight",
          "type": "uint256"
        }
      ],
      "name": "calcBptOutAddToken",
      "outputs": [
        {
          "internalType": "uint256",
          "name": "",
          "type": "uint256"
        }
      ],
      "stateMutability": "pure",
      "type": "function"
    },
    {
      "inputs": [
        {
          "internalType": "uint256",
          "name": "balance",
          "type": "uint256"
        },
        {
          "internalType": "uint256",
          "name": "normalizedWeight",
          "type": "uint256"
        },
        {
          "internalType": "uint256",
          "name": "amountIn",
          "type": "uint256"
        },
        {
          "internalType": "uint256",
          "name": "bptTotalSupply",
          "type": "uint256"
        },
        {
          "internalType": "uint256",
          "name": "swapFeePercentage",
          "type": "uint256"
        }
      ],
      "name": "calcBptOutGivenExactTokenIn",
      "outputs": [
        {
          "internalType": "uint256",
          "name": "",
          "type": "uint256"
        }
      ],
      "stateMutability": "pure",
      "type": "function"
    },
    {
      "inputs": [
        {
          "internalType": "uint256[]",
          "name": "balances",
          "type": "uint256[]"
        },
        {
          "internalType": "uint256[]",
          "name": "normalizedWeights",
          "type": "uint256[]"
        },
        {
          "internalType": "uint256[]",
          "name": "amountsIn",
          "type": "uint256[]"
        },
        {
          "internalType": "uint256",
          "name": "bptTotalSupply",
          "type": "uint256"
        },
        {
          "internalType": "uint256",
          "name": "swapFeePercentage",
          "type": "uint256"
        }
      ],
      "name": "calcBptOutGivenExactTokensIn",
      "outputs": [
        {
          "internalType": "uint256",
          "name": "",
          "type": "uint256"
        }
      ],
      "stateMutability": "pure",
      "type": "function"
    },
    {
      "inputs": [
        {
          "internalType": "uint256",
          "name": "balanceIn",
          "type": "uint256"
        },
        {
          "internalType": "uint256",
          "name": "weightIn",
          "type": "uint256"
        },
        {
          "internalType": "uint256",
          "name": "balanceOut",
          "type": "uint256"
        },
        {
          "internalType": "uint256",
          "name": "weightOut",
          "type": "uint256"
        },
        {
          "internalType": "uint256",
          "name": "amountOut",
          "type": "uint256"
        }
      ],
      "name": "calcInGivenOut",
      "outputs": [
        {
          "internalType": "uint256",
          "name": "",
          "type": "uint256"
        }
      ],
      "stateMutability": "pure",
      "type": "function"
    },
    {
      "inputs": [
        {
          "internalType": "uint256",
          "name": "balanceIn",
          "type": "uint256"
        },
        {
          "internalType": "uint256",
          "name": "weightIn",
          "type": "uint256"
        },
        {
          "internalType": "uint256",
          "name": "balanceOut",
          "type": "uint256"
        },
        {
          "internalType": "uint256",
          "name": "weightOut",
          "type": "uint256"
        },
        {
          "internalType": "uint256",
          "name": "amountIn",
          "type": "uint256"
        }
      ],
      "name": "calcOutGivenIn",
      "outputs": [
        {
          "internalType": "uint256",
          "name": "",
          "type": "uint256"
        }
      ],
      "stateMutability": "pure",
      "type": "function"
    },
    {
      "inputs": [
        {
          "internalType": "uint256",
          "name": "balance",
          "type": "uint256"
        },
        {
          "internalType": "uint256",
          "name": "normalizedWeight",
          "type": "uint256"
        },
        {
          "internalType": "uint256",
          "name": "bptAmountOut",
          "type": "uint256"
        },
        {
          "internalType": "uint256",
          "name": "bptTotalSupply",
          "type": "uint256"
        },
        {
          "internalType": "uint256",
          "name": "swapFeePercentage",
          "type": "uint256"
        }
      ],
      "name": "calcTokenInGivenExactBptOut",
      "outputs": [
        {
          "internalType": "uint256",
          "name": "",
          "type": "uint256"
        }
      ],
      "stateMutability": "pure",
      "type": "function"
    },
    {
      "inputs": [
        {
          "internalType": "uint256",
          "name": "balance",
          "type": "uint256"
        },
        {
          "internalType": "uint256",
          "name": "normalizedWeight",
          "type": "uint256"
        },
        {
          "internalType": "uint256",
          "name": "bptAmountIn",
          "type": "uint256"
        },
        {
          "internalType": "uint256",
          "name": "bptTotalSupply",
          "type": "uint256"
        },
        {
          "internalType": "uint256",
          "name": "swapFeePercentage",
          "type": "uint256"
        }
      ],
      "name": "calcTokenOutGivenExactBptIn",
      "outputs": [
        {
          "internalType": "uint256",
          "name": "",
          "type": "uint256"
        }
      ],
      "stateMutability": "pure",
      "type": "function"
    },
    {
      "inputs": [
        {
          "internalType": "uint256[]",
          "name": "balances",
          "type": "uint256[]"
        },
        {
          "internalType": "uint256",
          "name": "bptAmountIn",
          "type": "uint256"
        },
        {
          "internalType": "uint256",
          "name": "totalBPT",
          "type": "uint256"
        }
      ],
      "name": "calcTokensOutGivenExactBptIn",
      "outputs": [
        {
          "internalType": "uint256[]",
          "name": "",
          "type": "uint256[]"
        }
      ],
      "stateMutability": "pure",
      "type": "function"
    },
    {
      "inputs": [
        {
          "internalType": "uint256[]",
          "name": "normalizedWeights",
          "type": "uint256[]"
        },
        {
          "internalType": "uint256[]",
          "name": "balances",
          "type": "uint256[]"
        }
      ],
      "name": "calculateInvariant",
      "outputs": [
        {
          "internalType": "uint256",
          "name": "",
          "type": "uint256"
        }
      ],
      "stateMutability": "pure",
      "type": "function"
    },
    {
      "inputs": [
        {
          "internalType": "uint256[]",
          "name": "balances",
          "type": "uint256[]"
        },
        {
          "internalType": "uint256[]",
          "name": "normalizedWeights",
          "type": "uint256[]"
        },
        {
          "internalType": "uint256[]",
          "name": "scalingFactors",
          "type": "uint256[]"
        },
        {
          "internalType": "uint256",
          "name": "totalSupply",
          "type": "uint256"
        },
        {
          "internalType": "uint256",
          "name": "swapFeePercentage",
          "type": "uint256"
        },
        {
          "internalType": "bytes",
          "name": "userData",
          "type": "bytes"
        }
      ],
      "name": "exitBPTInForExactTokensOut",
      "outputs": [
        {
          "internalType": "uint256",
          "name": "",
          "type": "uint256"
        },
        {
          "internalType": "uint256[]",
          "name": "",
          "type": "uint256[]"
        }
      ],
      "stateMutability": "pure",
      "type": "function"
    },
    {
      "inputs": [
        {
          "internalType": "uint256[]",
          "name": "balances",
          "type": "uint256[]"
        },
        {
          "internalType": "uint256[]",
          "name": "normalizedWeights",
          "type": "uint256[]"
        },
        {
          "internalType": "uint256",
          "name": "totalSupply",
          "type": "uint256"
        },
        {
          "internalType": "uint256",
          "name": "swapFeePercentage",
          "type": "uint256"
        },
        {
          "internalType": "bytes",
          "name": "userData",
          "type": "bytes"
        }
      ],
      "name": "exitExactBPTInForTokenOut",
      "outputs": [
        {
          "internalType": "uint256",
          "name": "",
          "type": "uint256"
        },
        {
          "internalType": "uint256[]",
          "name": "",
          "type": "uint256[]"
        }
      ],
      "stateMutability": "pure",
      "type": "function"
    },
    {
      "inputs": [
        {
          "internalType": "uint256[]",
          "name": "balances",
          "type": "uint256[]"
        },
        {
          "internalType": "uint256",
          "name": "totalSupply",
          "type": "uint256"
        },
        {
          "internalType": "bytes",
          "name": "userData",
          "type": "bytes"
        }
      ],
      "name": "exitExactBPTInForTokensOut",
      "outputs": [
        {
          "internalType": "uint256",
          "name": "bptAmountIn",
          "type": "uint256"
        },
        {
          "internalType": "uint256[]",
          "name": "amountsOut",
          "type": "uint256[]"
        }
      ],
      "stateMutability": "pure",
      "type": "function"
    },
    {
      "inputs": [
        {
          "internalType": "uint256[]",
          "name": "balances",
          "type": "uint256[]"
        },
        {
          "internalType": "uint256",
          "name": "totalSupply",
          "type": "uint256"
        },
        {
          "internalType": "bytes",
          "name": "userData",
          "type": "bytes"
        }
      ],
      "name": "joinAllTokensInForExactBPTOut",
      "outputs": [
        {
          "internalType": "uint256",
          "name": "bptAmountOut",
          "type": "uint256"
        },
        {
          "internalType": "uint256[]",
          "name": "amountsIn",
          "type": "uint256[]"
        }
      ],
      "stateMutability": "pure",
      "type": "function"
    },
    {
      "inputs": [
        {
          "internalType": "uint256[]",
          "name": "balances",
          "type": "uint256[]"
        },
        {
          "internalType": "uint256[]",
          "name": "normalizedWeights",
          "type": "uint256[]"
        },
        {
          "internalType": "uint256[]",
          "name": "scalingFactors",
          "type": "uint256[]"
        },
        {
          "internalType": "uint256",
          "name": "totalSupply",
          "type": "uint256"
        },
        {
          "internalType": "uint256",
          "name": "swapFeePercentage",
          "type": "uint256"
        },
        {
          "internalType": "bytes",
          "name": "userData",
          "type": "bytes"
        }
      ],
      "name": "joinExactTokensInForBPTOut",
      "outputs": [
        {
          "internalType": "uint256",
          "name": "",
          "type": "uint256"
        },
        {
          "internalType": "uint256[]",
          "name": "",
          "type": "uint256[]"
        }
      ],
      "stateMutability": "pure",
      "type": "function"
    },
    {
      "inputs": [
        {
          "internalType": "uint256[]",
          "name": "balances",
          "type": "uint256[]"
        },
        {
          "internalType": "uint256[]",
          "name": "normalizedWeights",
          "type": "uint256[]"
        },
        {
          "internalType": "uint256",
          "name": "totalSupply",
          "type": "uint256"
        },
        {
          "internalType": "uint256",
          "name": "swapFeePercentage",
          "type": "uint256"
        },
        {
          "internalType": "bytes",
          "name": "userData",
          "type": "bytes"
        }
      ],
      "name": "joinTokenInForExactBPTOut",
      "outputs": [
        {
          "internalType": "uint256",
          "name": "",
          "type": "uint256"
        },
        {
          "internalType": "uint256[]",
          "name": "",
          "type": "uint256[]"
        }
      ],
      "stateMutability": "pure",
      "type": "function"
    }
  ],
  "bytecode": "0x608060405234801561001057600080fd5b50612f6d806100206000396000f3fe608060405234801561001057600080fd5b50600436106101165760003560e01c8063588e1b44116100a2578063afc4d0db11610071578063afc4d0db1461103d578063b540624d14611072578063d59051001461121c578063ef2aca7614611251578063f442dbc41461128657610116565b8063588e1b4414610c455780637351a78614610def5780637f1ae8a914610ee557806390043a5814610f1a57610116565b8063120c0c63116100e9578063120c0c63146104d45780631b2db0ea1461070a5780632ac71a3e146108385780633d0b05e914610a6e5780634c888cbb14610c2257610116565b806303a5b64b1461011b578063098e0189146102a45780630c78bb4e146104585780630ccd89411461049f575b600080fd5b6102496004803603606081101561013157600080fd5b810190602081018135600160201b81111561014b57600080fd5b82018360208201111561015d57600080fd5b803590602001918460208302840111600160201b8311171561017e57600080fd5b91908080602002602001604051908101604052809392919081815260200183836020028082843760009201919091525092958435959094909350604081019250602001359050600160201b8111156101d557600080fd5b8201836020820111156101e757600080fd5b803590602001918460018302840111600160201b8311171561020857600080fd5b91908080601f01602080910402602001604051908101604052809392919081815260200183838082843760009201919091525092955061132c945050505050565b6040518083815260200180602001828103825283818151815260200191508051906020019060200280838360005b8381101561028f578181015183820152602001610277565b50505050905001935050505060405180910390f35b610249600480360360a08110156102ba57600080fd5b810190602081018135600160201b8111156102d457600080fd5b8201836020820111156102e657600080fd5b803590602001918460208302840111600160201b8311171561030757600080fd5b9190808060200260200160405190810160405280939291908181526020018383602002808284376000920191909152509295949360208101935035915050600160201b81111561035657600080fd5b82018360208201111561036857600080fd5b803590602001918460208302840111600160201b8311171561038957600080fd5b9190808060200260200160405190810160405280939291908181526020018383602002808284376000920191909152509295843595602086013595919450925060608101915060400135600160201b8111156103e457600080fd5b8201836020820111156103f657600080fd5b803590602001918460018302840111600160201b8311171561041757600080fd5b91908080601f016020809104026020016040519081016040528093929190818152602001838380828437600092019190915250929550611347945050505050565b61048d600480360360a081101561046e57600080fd5b5080359060208101359060408101359060608101359060800135611366565b60408051918252519081900360200190f35b61048d600480360360a08110156104b557600080fd5b5080359060208101359060408101359060608101359060800135611381565b610249600480360360c08110156104ea57600080fd5b810190602081018135600160201b81111561050457600080fd5b82018360208201111561051657600080fd5b803590602001918460208302840111600160201b8311171561053757600080fd5b9190808060200260200160405190810160405280939291908181526020018383602002808284376000920191909152509295949360208101935035915050600160201b81111561058657600080fd5b82018360208201111561059857600080fd5b803590602001918460208302840111600160201b831117156105b957600080fd5b9190808060200260200160405190810160405280939291908181526020018383602002808284376000920191909152509295949360208101935035915050600160201b81111561060857600080fd5b82018360208201111561061a57600080fd5b803590602001918460208302840111600160201b8311171561063b57600080fd5b9190808060200260200160405190810160405280939291908181526020018383602002808284376000920191909152509295843595602086013595919450925060608101915060400135600160201b81111561069657600080fd5b8201836020820111156106a857600080fd5b803590602001918460018302840111600160201b831117156106c957600080fd5b91908080601f016020809104026020016040519081016040528093929190818152602001838380828437600092019190915250929550611390945050505050565b6102496004803603606081101561072057600080fd5b810190602081018135600160201b81111561073a57600080fd5b82018360208201111561074c57600080fd5b803590602001918460208302840111600160201b8311171561076d57600080fd5b91908080602002602001604051908101604052809392919081815260200183836020028082843760009201919091525092958435959094909350604081019250602001359050600160201b8111156107c457600080fd5b8201836020820111156107d657600080fd5b803590602001918460018302840111600160201b831117156107f757600080fd5b91908080601f0160208091040260200160405190810160405280939291908181526020018383808284376000920191909152509295506113b1945050505050565b610249600480360360c081101561084e57600080fd5b810190602081018135600160201b81111561086857600080fd5b82018360208201111561087a57600080fd5b803590602001918460208302840111600160201b8311171561089b57600080fd5b9190808060200260200160405190810160405280939291908181526020018383602002808284376000920191909152509295949360208101935035915050600160201b8111156108ea57600080fd5b8201836020820111156108fc57600080fd5b803590602001918460208302840111600160201b8311171561091d57600080fd5b9190808060200260200160405190810160405280939291908181526020018383602002808284376000920191909152509295949360208101935035915050600160201b81111561096c57600080fd5b82018360208201111561097e57600080fd5b803590602001918460208302840111600160201b8311171561099f57600080fd5b9190808060200260200160405190810160405280939291908181526020018383602002808284376000920191909152509295843595602086013595919450925060608101915060400135600160201b8111156109fa57600080fd5b820183602082011115610a0c57600080fd5b803590602001918460018302840111600160201b83111715610a2d57600080fd5b91908080601f0160208091040260200160405190810160405280939291908181526020018383808284376000920191909152509295506113c0945050505050565b610249600480360360a0811015610a8457600080fd5b810190602081018135600160201b811115610a9e57600080fd5b820183602082011115610ab057600080fd5b803590602001918460208302840111600160201b83111715610ad157600080fd5b9190808060200260200160405190810160405280939291908181526020018383602002808284376000920191909152509295949360208101935035915050600160201b811115610b2057600080fd5b820183602082011115610b3257600080fd5b803590602001918460208302840111600160201b83111715610b5357600080fd5b9190808060200260200160405190810160405280939291908181526020018383602002808284376000920191909152509295843595602086013595919450925060608101915060400135600160201b811115610bae57600080fd5b820183602082011115610bc057600080fd5b803590602001918460018302840111600160201b83111715610be157600080fd5b91908080601f0160208091040260200160405190810160405280939291908181526020018383808284376000920191909152509295506113d2945050505050565b61048d60048036036040811015610c3857600080fd5b50803590602001356113e3565b61048d600480360360a0811015610c5b57600080fd5b810190602081018135600160201b811115610c7557600080fd5b820183602082011115610c8757600080fd5b803590602001918460208302840111600160201b83111715610ca857600080fd5b9190808060200260200160405190810160405280939291908181526020018383602002808284376000920191909152509295949360208101935035915050600160201b811115610cf757600080fd5b820183602082011115610d0957600080fd5b803590602001918460208302840111600160201b83111715610d2a57600080fd5b9190808060200260200160405190810160405280939291908181526020018383602002808284376000920191909152509295949360208101935035915050600160201b811115610d7957600080fd5b820183602082011115610d8b57600080fd5b803590602001918460208302840111600160201b83111715610dac57600080fd5b91908080602002602001604051908101604052809392919081815260200183836020028082843760009201919091525092955050823593505050602001356113f8565b610e9560048036036060811015610e0557600080fd5b810190602081018135600160201b811115610e1f57600080fd5b820183602082011115610e3157600080fd5b803590602001918460208302840111600160201b83111715610e5257600080fd5b9190808060200260200160405190810160405280939291908181526020018383602002808284376000920191909152509295505082359350505060200135611407565b60408051602080825283518183015283519192839290830191858101910280838360005b83811015610ed1578181015183820152602001610eb9565b505050509050019250505060405180910390f35b61048d600480360360a0811015610efb57600080fd5b508035906020810135906040810135906060810135906080013561141c565b61048d60048036036040811015610f3057600080fd5b810190602081018135600160201b811115610f4a57600080fd5b820183602082011115610f5c57600080fd5b803590602001918460208302840111600160201b83111715610f7d57600080fd5b9190808060200260200160405190810160405280939291908181526020018383602002808284376000920191909152509295949360208101935035915050600160201b811115610fcc57600080fd5b820183602082011115610fde57600080fd5b803590602001918460208302840111600160201b83111715610fff57600080fd5b91908080602002602001604051908101604052809392919081815260200183836020028082843760009201919091525092955061142b945050505050565b61048d600480360360a081101561105357600080fd5b5080359060208101359060408101359060608101359060800135611437565b61048d600480360360a081101561108857600080fd5b810190602081018135600160201b8111156110a257600080fd5b8201836020820111156110b457600080fd5b803590602001918460208302840111600160201b831117156110d557600080fd5b9190808060200260200160405190810160405280939291908181526020018383602002808284376000920191909152509295949360208101935035915050600160201b81111561112457600080fd5b82018360208201111561113657600080fd5b803590602001918460208302840111600160201b8311171561115757600080fd5b9190808060200260200160405190810160405280939291908181526020018383602002808284376000920191909152509295949360208101935035915050600160201b8111156111a657600080fd5b8201836020820111156111b857600080fd5b803590602001918460208302840111600160201b831117156111d957600080fd5b9190808060200260200160405190810160405280939291908181526020018383602002808284376000920191909152509295505082359350505060200135611446565b61048d600480360360a081101561123257600080fd5b5080359060208101359060408101359060608101359060800135611455565b61048d600480360360a081101561126757600080fd5b5080359060208101359060408101359060608101359060800135611464565b610e956004803603606081101561129c57600080fd5b810190602081018135600160201b8111156112b657600080fd5b8201836020820111156112c857600080fd5b803590602001918460208302840111600160201b831117156112e957600080fd5b9190808060200260200160405190810160405280939291908181526020018383602002808284376000920191909152509295505082359350505060200135611473565b6000606061133b858585611480565b91509150935093915050565b6000606061135887878787876114a4565b915091509550959350505050565b6000611375868686868661156d565b90505b95945050505050565b600061137586868686866115e8565b600060606113a28888888888886116a5565b91509150965096945050505050565b6000606061133b8585856116fe565b600060606113a2888888888888611718565b600060606113588787878787611761565b60006113ef83836117b8565b90505b92915050565b600061137586868686866117fd565b606061141484838561193b565b949350505050565b600061137586868686866119d4565b60006113ef8383611a6a565b60006113758686868686611adc565b60006113758686868686611beb565b60006113758686868686611d00565b60006113758686868686611d76565b6060611414848385611e52565b6000606061148d83611ee2565b915061149a85858461193b565b9050935093915050565b600060606000806114b485611f04565b915091506114c6895182106064611f32565b60006114fb8a83815181106114d757fe5b60200260200101518a84815181106114eb57fe5b6020026020010151858b8b6119d4565b905060608a5167ffffffffffffffff8111801561151757600080fd5b50604051908082528060200260200182016040528015611541578160200160208202803683370190505b5090508181848151811061155157fe5b6020908102919091010152929a92995091975050505050505050565b600061158f61158487670429d069189e0000611f44565b831115610130611f32565b600061159b8784611f7c565b905060006115a98883611f8e565b905060006115b78887611fe5565b905060006115c58383612025565b90506115da6115d3826120ca565b8990611f44565b9a9950505050505050505050565b6000806115ff846115f981886120dc565b90611f8e565b90506116186709b6e64a8ec60000821015610132611f32565b600061163661162f670de0b6b3a764000089611fe5565b8390612025565b9050600061164d611646836120ca565b8a90611f44565b9050600061166461165d8a6120ca565b83906120f2565b9050600061167283836120dc565b90506000611689611682896120ca565b84906120f2565b90506116958282611f7c565b9c9b505050505050505050505050565b600060608060006116b58561212a565b915091506116c58a5183516121e5565b6116cf82896121f2565b60006116de8b8b858b8b611beb565b90506116ee8282101560d0611f32565b9a91995090975050505050505050565b6000606061170b83611ee2565b915061149a858584611e52565b600060608060006117288561212a565b9150915061173882518b516121e5565b61174282896121f2565b60006117518b8b858b8b6117fd565b90506116ee8282111560cf611f32565b6000606060008061177185611f04565b91509150611783895182106064611f32565b60006114fb8a838151811061179457fe5b60200260200101518a84815181106117a857fe5b6020026020010151858b8b6115e8565b6000806117df6117d0670de0b6b3a7640000856120dc565b670de0b6b3a764000090611fe5565b90506114146117f682670de0b6b3a76400006120dc565b8590611f44565b60006060845167ffffffffffffffff8111801561181957600080fd5b50604051908082528060200260200182016040528015611843578160200160208202803683370190505b5090506000805b8851811015611908576118a389828151811061186257fe5b60200260200101516115f989848151811061187957fe5b60200260200101518c858151811061188d57fe5b60200260200101516120dc90919063ffffffff16565b8382815181106118af57fe5b6020026020010181815250506118fe6118f78983815181106118cd57fe5b60200260200101518584815181106118e157fe5b60200260200101516120f290919063ffffffff16565b8390611f7c565b915060010161184a565b50600061191989898986868a612261565b905061192e611927826120ca565b87906120f2565b9998505050505050505050565b606060006119498385611f8e565b9050845167ffffffffffffffff8111801561196357600080fd5b5060405190808252806020026020018201604052801561198d578160200160208202803683370190505b50915060005b85518110156119cb576119ac828783815181106118e157fe5b8382815181106119b857fe5b6020908102919091010152600101611993565b50509392505050565b6000806119e5846115f98188611f7c565b90506119fe6729a2241af62c0000821115610133611f32565b6000611a1561162f670de0b6b3a764000089611f8e565b90506000611a35611a2e83670de0b6b3a76400006120dc565b8a906120f2565b90506000611a4561165d8a6120ca565b90506000611a5383836120dc565b90506000611689611a63896120ca565b8490611f8e565b670de0b6b3a764000060005b8351811015611acc57611ac2611abb858381518110611a9157fe5b6020026020010151858481518110611aa557fe5b602002602001015161237890919063ffffffff16565b8390611f44565b9150600101611a76565b506113f260008211610137611f32565b60008080611af488611aee8189611f7c565b90611fe5565b90506000611b14611b04896120ca565b611b0e848b611f44565b90611f7c565b905080821115611b87576000670de0b6b3a76400008211611b36576000611b4b565b611b4b8a670de0b6b3a763ffff198401611f44565b90506000611b5989836120dc565b90506000611b6782896120f2565b9050611b7d611b7683836120dc565b8490611f7c565b9550505050611b9b565b86925082611b9b5760009350505050611378565b5060009050611bae88611aee8185611f7c565b90506000611bbc8289612378565b90506000670de0b6b3a76400008211611bd65760006115da565b6115da87670de0b6b3a763ffff198401611f44565b60006060845167ffffffffffffffff81118015611c0757600080fd5b50604051908082528060200260200182016040528015611c31578160200160208202803683370190505b5090506000805b8851811015611cef57611c91898281518110611c5057fe5b6020026020010151611aee898481518110611c6757fe5b60200260200101518c8581518110611c7b57fe5b6020026020010151611f7c90919063ffffffff16565b838281518110611c9d57fe5b602002602001018181525050611ce56118f7898381518110611cbb57fe5b6020026020010151858481518110611ccf57fe5b6020026020010151611f4490919063ffffffff16565b9150600101611c38565b506000611bbc89898986868a612411565b6000611d22611d1785670429d069189e0000611f44565b831115610131611f32565b6000611d38611d3186856120dc565b8690611f8e565b90506000611d468588611f8e565b90506000611d548383612025565b90506000611d6a82670de0b6b3a76400006120dc565b90506115da8a826120f2565b600080611d87876115f981886120dc565b90506000611da1611d97886120ca565b611b0e848a6120f2565b9050600082821115611dfd576000611dc2611dbb846120ca565b8b90611f44565b90506000611dd089836120dc565b90506000611de7611de0896120ca565b8390611f8e565b9050611df38382611f7c565b9350505050611e10565b508580611e105760009350505050611378565b6000611e208a611aee81856120dc565b90506000611e2e828b612378565b9050611e43611e3c826120ca565b89906120f2565b9b9a5050505050505050505050565b60606000611e608385611fe5565b9050845167ffffffffffffffff81118015611e7a57600080fd5b50604051908082528060200260200182016040528015611ea4578160200160208202803683370190505b50915060005b85518110156119cb57611ec382878381518110611ccf57fe5b838281518110611ecf57fe5b6020908102919091010152600101611eaa565b6000818060200190516040811015611ef957600080fd5b506020015192915050565b600080828060200190516060811015611f1c57600080fd5b5060208101516040909101519094909350915050565b81611f4057611f408161251d565b5050565b6000828202611f68841580611f61575083858381611f5e57fe5b04145b6003611f32565b670de0b6b3a7640000815b04949350505050565b60008282016113ef8482101583611f32565b6000611f9d8215156004611f32565b670de0b6b3a76400008302611fcf841580611fc85750670de0b6b3a7640000858381611fc557fe5b04145b6005611f32565b6001836001830304018115150291505092915050565b6000611ff48215156004611f32565b670de0b6b3a7640000830261201c841580611fc85750670de0b6b3a7640000858381611fc557fe5b828181611f7357fe5b6000670de0b6b3a764000082141561203e5750816113f2565b671bc16d674ec8000082141561205f5761205883846120f2565b90506113f2565b673782dace9d90000082141561208f57600061207b84856120f2565b905061208781826120f2565b9150506113f2565b600061209b8484612530565b905060006120b56120ae836127106120f2565b6001611f7c565b90506120c18282611f7c565b925050506113f2565b670de0b6b3a764000081810391100290565b60006120ec838311156001611f32565b50900390565b600082820261210c841580611f61575083858381611f5e57fe5b6001670de0b6b3a76400006001830304018115150291505092915050565b6060600082806020019051606081101561214357600080fd5b815160208301805160405192949293830192919084600160201b82111561216957600080fd5b90830190602082018581111561217e57600080fd5b82518660208202830111600160201b8211171561219a57600080fd5b82525081516020918201928201910280838360005b838110156121c75781810151838201526020016121af565b50505050919091016040525060200151929792965091945050505050565b611f408183146067611f32565b815181516122019082906121e5565b60005b8181101561225b5761223c84828151811061221b57fe5b602002602001015184838151811061222f57fe5b6020026020010151611f44565b84828151811061224857fe5b6020908102919091010152600101612204565b50505050565b670de0b6b3a764000060005b875181101561236d57600085828151811061228457fe5b60200260200101518511156122e75760006122ad6122a1876120ca565b8b8581518110611ccf57fe5b905060006122c1828a868151811061188d57fe5b905060006122d1611de0886120ca565b90506122dd8382611f7c565b935050505061230c565b8682815181106122f357fe5b60200260200101519050806000141561230c5750612365565b60006123358a848151811061231d57fe5b6020026020010151611aee848d878151811061188d57fe5b90506123606117f68a858151811061234957fe5b60200260200101518361237890919063ffffffff16565b935050505b60010161226d565b509695505050505050565b6000670de0b6b3a76400008214156123915750816113f2565b671bc16d674ec800008214156123ab576120588384611f44565b673782dace9d9000008214156123d35760006123c78485611f44565b90506120878182611f44565b60006123df8484612530565b905060006123f26120ae836127106120f2565b905080821015612407576000925050506113f2565b6120c182826120dc565b670de0b6b3a764000060005b875181101561236d5760008486838151811061243557fe5b602002602001015111156124ae576000670de0b6b3a7640000861161245b576000612475565b612475670de0b6b3a764000087038b8581518110611ccf57fe5b905060006124938661248d848c888151811061188d57fe5b906120f2565b90506124a5818a868151811061188d57fe5b925050506124d3565b8682815181106124ba57fe5b6020026020010151905080600014156124d35750612515565b60006124fc8a84815181106124e457fe5b6020026020010151611aee848d8781518110611c7b57fe5b90506125106117f68a858151811061234957fe5b935050505b60010161241d565b61252d816210905360ea1b61263a565b50565b6000816125465750670de0b6b3a76400006113f2565b82612553575060006113f2565b61256360ff84901c156006611f32565b82612589770bce5086492111aea88f4bb1ca6bcf584181ea8059f7653284106007611f32565b826000670c7d713b49da0000831380156125aa5750670f43fc2c04ee000083125b156125e15760006125ba8461269b565b9050670de0b6b3a764000080820784020583670de0b6b3a7640000830502019150506125ef565b816125eb846127bb565b0290505b670de0b6b3a76400009005612627680238fd42c5cf03ffff198212801590612620575068070c1cc73b00c800008213155b6008611f32565b61263081612b5a565b9695505050505050565b62461bcd60e51b600090815260206004526007602452600a808404818106603090810160081b958390069590950190829004918206850160101b01602363ffffff0060e086901c160160181b0190930160c81b60445260e882901c90606490fd5b670de0b6b3a7640000026000806a0c097ce7bc90715b34b9f160241b808401906ec097ce7bc90715b34b9f0fffffffff19850102816126d657fe5b05905060006a0c097ce7bc90715b34b9f160241b82800205905081806a0c097ce7bc90715b34b9f160241b81840205915060038205016a0c097ce7bc90715b34b9f160241b82840205915060058205016a0c097ce7bc90715b34b9f160241b82840205915060078205016a0c097ce7bc90715b34b9f160241b82840205915060098205016a0c097ce7bc90715b34b9f160241b828402059150600b8205016a0c097ce7bc90715b34b9f160241b828402059150600d8205016a0c097ce7bc90715b34b9f160241b828402059150600f820581019050806002029450505050505b919050565b6000670de0b6b3a76400008212156127f7576127ed826a0c097ce7bc90715b34b9f160241b816127e757fe5b056127bb565b60000390506127b6565b60007e1600ef3172e58d2e933ec884fde10064c63b5372d805e203c0000000000000831261284857770195e54c5dd42177f53a27172fa9ec630262827000000000830592506806f05b59d3b2000000015b73011798004d755d3c8bc8e03204cf44619e0000008312612880576b1425982cf597cd205cef7380830592506803782dace9d9000000015b606492830292026e01855144814a7ff805980ff008400083126128c8576e01855144814a7ff805980ff008400068056bc75e2d63100000840205925068ad78ebc5ac62000000015b6b02df0ab5a80a22c61ab5a7008312612903576b02df0ab5a80a22c61ab5a70068056bc75e2d6310000084020592506856bc75e2d631000000015b693f1fce3da636ea5cf850831261293a57693f1fce3da636ea5cf85068056bc75e2d631000008402059250682b5e3af16b18800000015b690127fa27722cc06cc5e2831261297157690127fa27722cc06cc5e268056bc75e2d6310000084020592506815af1d78b58c400000015b68280e60114edb805d0383126129a65768280e60114edb805d0368056bc75e2d631000008402059250680ad78ebc5ac6200000015b680ebc5fb4174612111083126129d157680ebc5fb4174612111068056bc75e2d631000009384020592015b6808f00f760a4b2db55d8312612a06576808f00f760a4b2db55d68056bc75e2d6310000084020592506802b5e3af16b1880000015b6806f5f17757889379378312612a3b576806f5f177578893793768056bc75e2d63100000840205925068015af1d78b58c40000015b6806248f33704b2866038312612a6f576806248f33704b28660368056bc75e2d63100000840205925067ad78ebc5ac620000015b6805c548670b9510e7ac8312612aa3576805c548670b9510e7ac68056bc75e2d6310000084020592506756bc75e2d6310000015b600068056bc75e2d63100000840168056bc75e2d631000008086030281612ac657fe5b059050600068056bc75e2d63100000828002059050818068056bc75e2d63100000818402059150600382050168056bc75e2d63100000828402059150600582050168056bc75e2d63100000828402059150600782050168056bc75e2d63100000828402059150600982050168056bc75e2d63100000828402059150600b820501600202606485820105979650505050505050565b6000612b89680238fd42c5cf03ffff198312158015612b82575068070c1cc73b00c800008313155b6009611f32565b6000821215612bbc57612b9e82600003612b5a565b6a0c097ce7bc90715b34b9f160241b81612bb457fe5b0590506127b6565b60006806f05b59d3b20000008312612bfc57506806f05b59d3b1ffffff1990910190770195e54c5dd42177f53a27172fa9ec630262827000000000612c32565b6803782dace9d90000008312612c2e57506803782dace9d8ffffff19909101906b1425982cf597cd205cef7380612c32565b5060015b6064929092029168056bc75e2d6310000068ad78ebc5ac620000008412612c825768ad78ebc5ac61ffffff199093019268056bc75e2d631000006e01855144814a7ff805980ff008400082020590505b6856bc75e2d6310000008412612cbe576856bc75e2d630ffffff199093019268056bc75e2d631000006b02df0ab5a80a22c61ab5a70082020590505b682b5e3af16b188000008412612cf857682b5e3af16b187fffff199093019268056bc75e2d63100000693f1fce3da636ea5cf85082020590505b6815af1d78b58c4000008412612d32576815af1d78b58c3fffff199093019268056bc75e2d63100000690127fa27722cc06cc5e282020590505b680ad78ebc5ac62000008412612d6b57680ad78ebc5ac61fffff199093019268056bc75e2d6310000068280e60114edb805d0382020590505b68056bc75e2d631000008412612da45768056bc75e2d630fffff199093019268056bc75e2d63100000680ebc5fb4174612111082020590505b6802b5e3af16b18800008412612ddd576802b5e3af16b187ffff199093019268056bc75e2d631000006808f00f760a4b2db55d82020590505b68015af1d78b58c400008412612e165768015af1d78b58c3ffff199093019268056bc75e2d631000006806f5f177578893793782020590505b68056bc75e2d631000008481019085906002908280020505918201919050600368056bc75e2d631000008783020505918201919050600468056bc75e2d631000008783020505918201919050600568056bc75e2d631000008783020505918201919050600668056bc75e2d631000008783020505918201919050600768056bc75e2d631000008783020505918201919050600868056bc75e2d631000008783020505918201919050600968056bc75e2d631000008783020505918201919050600a68056bc75e2d631000008783020505918201919050600b68056bc75e2d631000008783020505918201919050600c68056bc75e2d631000008783020505918201919050606468056bc75e2d6310000084840205850205969550505050505056fea26469706673582212201ddd9037a2e7ddc649debfbd2bea0b49e3532636e101089a796690ef03952e3964736f6c63430007010033",
  "linkReferences": {},
  "deployedLinkReferences": {}
}